{
  "_format": "hh-sol-artifact-1",
  "contractName": "ZoodoMedicalRecords",
  "sourceName": "contracts/ZoodoMedicalRecords.sol",
  "abi": [
    {
      "inputs": [],
      "stateMutability": "nonpayable",
      "type": "constructor"
    },
    {
      "anonymous": false,
      "inputs": [
        {
          "indexed": true,
          "internalType": "string",
          "name": "appointmentId",
          "type": "string"
        },
        {
          "indexed": true,
          "internalType": "string",
          "name": "petId",
          "type": "string"
        },
        {
          "indexed": false,
          "internalType": "string",
          "name": "appointmentHash",
          "type": "string"
        },
        {
          "indexed": false,
          "internalType": "uint256",
          "name": "timestamp",
          "type": "uint256"
        },
        {
          "indexed": true,
          "internalType": "address",
          "name": "createdBy",
          "type": "address"
        }
      ],
      "name": "AppointmentRecordStored",
      "type": "event"
    },
    {
      "anonymous": false,
      "inputs": [
        {
          "indexed": true,
          "internalType": "string",
          "name": "petId",
          "type": "string"
        },
        {
          "indexed": false,
          "internalType": "string",
          "name": "recordHash",
          "type": "string"
        },
        {
          "indexed": false,
          "internalType": "string",
          "name": "recordType",
          "type": "string"
        },
        {
          "indexed": false,
          "internalType": "uint256",
          "name": "timestamp",
          "type": "uint256"
        },
        {
          "indexed": true,
          "internalType": "address",
          "name": "createdBy",
          "type": "address"
        }
      ],
      "name": "MedicalRecordStored",
      "type": "event"
    },
    {
      "anonymous": false,
      "inputs": [
        {
          "indexed": true,
          "internalType": "address",
          "name": "previousOwner",
          "type": "address"
        },
        {
          "indexed": true,
          "internalType": "address",
          "name": "newOwner",
          "type": "address"
        }
      ],
      "name": "OwnershipTransferred",
      "type": "event"
    },
    {
      "anonymous": false,
      "inputs": [
        {
          "indexed": false,
          "internalType": "address",
          "name": "account",
          "type": "address"
        }
      ],
      "name": "Paused",
      "type": "event"
    },
    {
      "anonymous": false,
      "inputs": [
        {
          "indexed": true,
          "internalType": "address",
          "name": "provider",
          "type": "address"
        },
        {
          "indexed": false,
          "internalType": "uint256",
          "name": "timestamp",
          "type": "uint256"
        }
      ],
      "name": "ProviderAuthorized",
      "type": "event"
    },
    {
      "anonymous": false,
      "inputs": [
        {
          "indexed": true,
          "internalType": "address",
          "name": "provider",
          "type": "address"
        },
        {
          "indexed": false,
          "internalType": "uint256",
          "name": "timestamp",
          "type": "uint256"
        }
      ],
      "name": "ProviderRevoked",
      "type": "event"
    },
    {
      "anonymous": false,
      "inputs": [
        {
          "indexed": true,
          "internalType": "string",
          "name": "recordHash",
          "type": "string"
        },
        {
          "indexed": false,
          "internalType": "bool",
          "name": "verified",
          "type": "bool"
        },
        {
          "indexed": false,
          "internalType": "uint256",
          "name": "timestamp",
          "type": "uint256"
        }
      ],
      "name": "RecordVerified",
      "type": "event"
    },
    {
      "anonymous": false,
      "inputs": [
        {
          "indexed": false,
          "internalType": "address",
          "name": "account",
          "type": "address"
        }
      ],
      "name": "Unpaused",
      "type": "event"
    },
    {
      "inputs": [
        {
          "internalType": "string",
          "name": "",
          "type": "string"
        }
      ],
      "name": "appointmentRecords",
      "outputs": [
        {
          "internalType": "string",
          "name": "appointmentId",
          "type": "string"
        },
        {
          "internalType": "string",
          "name": "petId",
          "type": "string"
        },
        {
          "internalType": "uint256",
          "name": "timestamp",
          "type": "uint256"
        },
        {
          "internalType": "string",
          "name": "appointmentHash",
          "type": "string"
        },
        {
          "internalType": "address",
          "name": "createdBy",
          "type": "address"
        },
        {
          "internalType": "bool",
          "name": "exists",
          "type": "bool"
        }
      ],
      "stateMutability": "view",
      "type": "function"
    },
    {
      "inputs": [
        {
          "internalType": "address",
          "name": "provider",
          "type": "address"
        }
      ],
      "name": "authorizeProvider",
      "outputs": [],
      "stateMutability": "nonpayable",
      "type": "function"
    },
    {
      "inputs": [
        {
          "internalType": "address",
          "name": "",
          "type": "address"
        }
      ],
      "name": "authorizedProviders",
      "outputs": [
        {
          "internalType": "bool",
          "name": "",
          "type": "bool"
        }
      ],
      "stateMutability": "view",
      "type": "function"
    },
    {
      "inputs": [
        {
          "internalType": "string",
          "name": "appointmentId",
          "type": "string"
        }
      ],
      "name": "getAppointmentRecord",
      "outputs": [
        {
          "internalType": "string",
          "name": "petId",
          "type": "string"
        },
        {
          "internalType": "uint256",
          "name": "timestamp",
          "type": "uint256"
        },
        {
          "internalType": "string",
          "name": "appointmentHash",
          "type": "string"
        },
        {
          "internalType": "bool",
          "name": "exists",
          "type": "bool"
        }
      ],
      "stateMutability": "view",
      "type": "function"
    },
    {
      "inputs": [],
      "name": "getContractStats",
      "outputs": [
        {
          "internalType": "uint256",
          "name": "totalRecords",
          "type": "uint256"
        },
        {
          "internalType": "uint256",
          "name": "totalAppointments",
          "type": "uint256"
        },
        {
          "internalType": "uint256",
          "name": "authorizedProvidersCount",
          "type": "uint256"
        }
      ],
      "stateMutability": "view",
      "type": "function"
    },
    {
      "inputs": [
        {
          "internalType": "string",
          "name": "recordHash",
          "type": "string"
        }
      ],
      "name": "getMedicalRecord",
      "outputs": [
        {
          "internalType": "string",
          "name": "petId",
          "type": "string"
        },
        {
          "internalType": "uint256",
          "name": "timestamp",
          "type": "uint256"
        },
        {
          "internalType": "bool",
          "name": "exists",
          "type": "bool"
        }
      ],
      "stateMutability": "view",
      "type": "function"
    },
    {
      "inputs": [
        {
          "internalType": "string",
          "name": "petId",
          "type": "string"
        }
      ],
      "name": "getPetRecords",
      "outputs": [
        {
          "internalType": "string[]",
          "name": "",
          "type": "string[]"
        }
      ],
      "stateMutability": "view",
      "type": "function"
    },
    {
      "inputs": [
        {
          "internalType": "address",
          "name": "provider",
          "type": "address"
        }
      ],
      "name": "getProviderRecords",
      "outputs": [
        {
          "internalType": "string[]",
          "name": "",
          "type": "string[]"
        }
      ],
      "stateMutability": "view",
      "type": "function"
    },
    {
      "inputs": [],
      "name": "getTotalAppointmentRecords",
      "outputs": [
        {
          "internalType": "uint256",
          "name": "",
          "type": "uint256"
        }
      ],
      "stateMutability": "view",
      "type": "function"
    },
    {
      "inputs": [],
      "name": "getTotalMedicalRecords",
      "outputs": [
        {
          "internalType": "uint256",
          "name": "",
          "type": "uint256"
        }
      ],
      "stateMutability": "view",
      "type": "function"
    },
    {
      "inputs": [
        {
          "internalType": "address",
          "name": "provider",
          "type": "address"
        }
      ],
      "name": "isAuthorizedProvider",
      "outputs": [
        {
          "internalType": "bool",
          "name": "",
          "type": "bool"
        }
      ],
      "stateMutability": "view",
      "type": "function"
    },
    {
      "inputs": [
        {
          "internalType": "string",
          "name": "",
          "type": "string"
        }
      ],
      "name": "medicalRecords",
      "outputs": [
        {
          "internalType": "string",
          "name": "petId",
          "type": "string"
        },
        {
          "internalType": "string",
          "name": "recordType",
          "type": "string"
        },
        {
          "internalType": "uint256",
          "name": "timestamp",
          "type": "uint256"
        },
        {
          "internalType": "string",
          "name": "recordHash",
          "type": "string"
        },
        {
          "internalType": "address",
          "name": "createdBy",
          "type": "address"
        },
        {
          "internalType": "bool",
          "name": "exists",
          "type": "bool"
        }
      ],
      "stateMutability": "view",
      "type": "function"
    },
    {
      "inputs": [],
      "name": "owner",
      "outputs": [
        {
          "internalType": "address",
          "name": "",
          "type": "address"
        }
      ],
      "stateMutability": "view",
      "type": "function"
    },
    {
      "inputs": [],
      "name": "pause",
      "outputs": [],
      "stateMutability": "nonpayable",
      "type": "function"
    },
    {
      "inputs": [],
      "name": "paused",
      "outputs": [
        {
          "internalType": "bool",
          "name": "",
          "type": "bool"
        }
      ],
      "stateMutability": "view",
      "type": "function"
    },
    {
      "inputs": [
        {
          "internalType": "string",
          "name": "",
          "type": "string"
        }
      ],
      "name": "petRecords",
      "outputs": [
        {
          "internalType": "string",
          "name": "petId",
          "type": "string"
        },
        {
          "internalType": "uint256",
          "name": "totalRecords",
          "type": "uint256"
        },
        {
          "internalType": "bool",
          "name": "exists",
          "type": "bool"
        }
      ],
      "stateMutability": "view",
      "type": "function"
    },
    {
      "inputs": [
        {
          "internalType": "address",
          "name": "",
          "type": "address"
        },
        {
          "internalType": "uint256",
          "name": "",
          "type": "uint256"
        }
      ],
      "name": "providerRecords",
      "outputs": [
        {
          "internalType": "string",
          "name": "",
          "type": "string"
        }
      ],
      "stateMutability": "view",
      "type": "function"
    },
    {
      "inputs": [],
      "name": "renounceOwnership",
      "outputs": [],
      "stateMutability": "nonpayable",
      "type": "function"
    },
    {
      "inputs": [
        {
          "internalType": "address",
          "name": "provider",
          "type": "address"
        }
      ],
      "name": "revokeProvider",
      "outputs": [],
      "stateMutability": "nonpayable",
      "type": "function"
    },
    {
      "inputs": [
        {
          "internalType": "string",
          "name": "appointmentHash",
          "type": "string"
        },
        {
          "internalType": "string",
          "name": "appointmentId",
          "type": "string"
        },
        {
          "internalType": "string",
          "name": "petId",
          "type": "string"
        }
      ],
      "name": "storeAppointmentRecord",
      "outputs": [],
      "stateMutability": "nonpayable",
      "type": "function"
    },
    {
      "inputs": [
        {
          "internalType": "string",
          "name": "recordHash",
          "type": "string"
        },
        {
          "internalType": "string",
          "name": "petId",
          "type": "string"
        },
        {
          "internalType": "string",
          "name": "recordType",
          "type": "string"
        }
      ],
      "name": "storeMedicalRecord",
      "outputs": [],
      "stateMutability": "nonpayable",
      "type": "function"
    },
    {
      "inputs": [
        {
          "internalType": "address",
          "name": "newOwner",
          "type": "address"
        }
      ],
      "name": "transferOwnership",
      "outputs": [],
      "stateMutability": "nonpayable",
      "type": "function"
    },
    {
      "inputs": [],
      "name": "unpause",
      "outputs": [],
      "stateMutability": "nonpayable",
      "type": "function"
    },
    {
      "inputs": [
        {
          "internalType": "string",
          "name": "appointmentId",
          "type": "string"
        }
      ],
      "name": "verifyAppointmentRecord",
      "outputs": [
        {
          "internalType": "bool",
          "name": "",
          "type": "bool"
        }
      ],
      "stateMutability": "view",
      "type": "function"
    },
    {
      "inputs": [
        {
          "internalType": "string",
          "name": "recordHash",
          "type": "string"
        }
      ],
      "name": "verifyMedicalRecord",
      "outputs": [
        {
          "internalType": "bool",
          "name": "",
          "type": "bool"
        }
      ],
      "stateMutability": "view",
      "type": "function"
    }
  ],
  "bytecode": "0x608060405234801561001057600080fd5b5061001a3361007f565b6000805460ff60a01b19168155338082526006602052604091829020805460ff1916600117905590517f5ee18bb17d127d4409f69ab086fffad6d93acf3010f7a646b731b79ada5d2cdf906100729042815260200190565b60405180910390a26100cf565b600080546001600160a01b038381166001600160a01b0319831681178455604051919092169283917f8be0079c531659141344cd1fd0a4f28419497f9722a3daafe3b4186f6b6457e09190a35050565b612141806100de6000396000f3fe608060405234801561001057600080fd5b50600436106101735760003560e01c8063740c1e2b116100de578063ac1e8b8e11610097578063cc368d5311610071578063cc368d5314610370578063dfe6b5d614610383578063f2fde38b146103a6578063f8270d70146103b957600080fd5b8063ac1e8b8e14610342578063b684375f14610355578063c9f020ac1461035d57600080fd5b8063740c1e2b146102d05780637a33f8e0146102e35780638456cb59146102f95780638da5cb5b1461030157806395e1f0161461031c578063aa2932861461032f57600080fd5b806322770d8e1161013057806322770d8e1461023f57806331db7aed1461026b5780633f4ba83a1461028b5780635c975abb1461029357806369dc3ae2146102a5578063715018a6146102c857600080fd5b80630a25fa2d146101785780630f0a0a74146101a05780630fa2b353146101c0578063112ea262146101e25780631375a954146101f75780631e9624051461021c575b600080fd5b61018b610186366004611c69565b6103cc565b60405190151581526020015b60405180910390f35b6101b36101ae366004611cc2565b610402565b6040516101979190611d3c565b6101d36101ce366004611c69565b6104bb565b60405161019793929190611d56565b6101f56101f0366004611d80565b610574565b005b61020a610205366004611c69565b6106a0565b60405161019796959493929190611d9b565b61022f61022a366004611c69565b610887565b6040516101979493929190611dfe565b61018b61024d366004611d80565b6001600160a01b031660009081526006602052604090205460ff1690565b61027e610279366004611d80565b610b44565b6040516101979190611e3d565b6101f5610c33565b600054600160a01b900460ff1661018b565b61018b6102b3366004611d80565b60066020526000908152604090205460ff1681565b6101f5610c45565b6101f56102de366004611e9f565b610c57565b6102eb610f31565b604051908152602001610197565b6101f5610f41565b6000546040516001600160a01b039091168152602001610197565b6101f561032a366004611e9f565b610f51565b61027e61033d366004611c69565b611389565b6101f5610350366004611d80565b6114ea565b6102eb6115ac565b61020a61036b366004611c69565b6115b7565b6101d361037e366004611c69565b6115dd565b61038b611881565b60408051938452602084019290925290820152606001610197565b6101f56103b4366004611d80565b61189f565b61018b6103c7366004611c69565b611918565b60006005826040516103de9190611f27565b9081526040519081900360200190206004015460ff600160a01b9091041692915050565b6007602052816000526040600020818154811061041e57600080fd5b9060005260206000200160009150915050805461043a90611f43565b80601f016020809104026020016040519081016040528092919081815260200182805461046690611f43565b80156104b35780601f10610488576101008083540402835291602001916104b3565b820191906000526020600020905b81548152906001019060200180831161049657829003601f168201915b505050505081565b80516020818301810180516004825292820191909301209152805481906104e190611f43565b80601f016020809104026020016040519081016040528092919081815260200182805461050d90611f43565b801561055a5780601f1061052f5761010080835404028352916020019161055a565b820191906000526020600020905b81548152906001019060200180831161053d57829003601f168201915b50505050600283015460039093015491929160ff16905083565b61057c61192a565b6001600160a01b0381166105d75760405162461bcd60e51b815260206004820152601860248201527f496e76616c69642070726f76696465722061646472657373000000000000000060448201526064015b60405180910390fd5b6001600160a01b03811660009081526006602052604090205460ff16156106405760405162461bcd60e51b815260206004820152601b60248201527f50726f766964657220616c726561647920617574686f72697a6564000000000060448201526064016105ce565b6001600160a01b03811660008181526006602052604090819020805460ff19166001179055517f5ee18bb17d127d4409f69ab086fffad6d93acf3010f7a646b731b79ada5d2cdf906106959042815260200190565b60405180910390a250565b80516020818301810180516005825292820191909301209152805481906106c690611f43565b80601f01602080910402602001604051908101604052809291908181526020018280546106f290611f43565b801561073f5780601f106107145761010080835404028352916020019161073f565b820191906000526020600020905b81548152906001019060200180831161072257829003601f168201915b50505050509080600101805461075490611f43565b80601f016020809104026020016040519081016040528092919081815260200182805461078090611f43565b80156107cd5780601f106107a2576101008083540402835291602001916107cd565b820191906000526020600020905b8154815290600101906020018083116107b057829003601f168201915b5050505050908060020154908060030180546107e890611f43565b80601f016020809104026020016040519081016040528092919081815260200182805461081490611f43565b80156108615780601f1061083657610100808354040283529160200191610861565b820191906000526020600020905b81548152906001019060200180831161084457829003601f168201915b505050600490930154919250506001600160a01b0381169060ff600160a01b9091041686565b6060600060606000846005816040516108a09190611f27565b9081526040519081900360200190206004015460ff600160a01b9091041661090a5760405162461bcd60e51b815260206004820152601a60248201527f4170706f696e746d656e7420646f6573206e6f7420657869737400000000000060448201526064016105ce565b600060058760405161091c9190611f27565b90815260200160405180910390206040518060c001604052908160008201805461094590611f43565b80601f016020809104026020016040519081016040528092919081815260200182805461097190611f43565b80156109be5780601f10610993576101008083540402835291602001916109be565b820191906000526020600020905b8154815290600101906020018083116109a157829003601f168201915b505050505081526020016001820180546109d790611f43565b80601f0160208091040260200160405190810160405280929190818152602001828054610a0390611f43565b8015610a505780601f10610a2557610100808354040283529160200191610a50565b820191906000526020600020905b815481529060010190602001808311610a3357829003601f168201915b5050505050815260200160028201548152602001600382018054610a7390611f43565b80601f0160208091040260200160405190810160405280929190818152602001828054610a9f90611f43565b8015610aec5780601f10610ac157610100808354040283529160200191610aec565b820191906000526020600020905b815481529060010190602001808311610acf57829003601f168201915b5050509183525050600491909101546001600160a01b038116602080840191909152600160a01b90910460ff16151560409283015282015190820151606083015160a090930151919a90995091975095509350505050565b6001600160a01b0381166000908152600760209081526040808320805482518185028101850190935280835260609492939192909184015b82821015610c28578382906000526020600020018054610b9b90611f43565b80601f0160208091040260200160405190810160405280929190818152602001828054610bc790611f43565b8015610c145780601f10610be957610100808354040283529160200191610c14565b820191906000526020600020905b815481529060010190602001808311610bf757829003601f168201915b505050505081526020019060010190610b7c565b505050509050919050565b610c3b61192a565b610c43611984565b565b610c4d61192a565b610c4360006119d9565b3360009081526006602052604090205460ff1680610c7f57506000546001600160a01b031633145b610cc55760405162461bcd60e51b81526020600482015260176024820152762737ba1030baba3437b934bd32b210383937bb34b232b960491b60448201526064016105ce565b610ccd611a29565b6000835111610d1e5760405162461bcd60e51b815260206004820181905260248201527f4170706f696e746d656e7420686173682063616e6e6f7420626520656d70747960448201526064016105ce565b6000825111610d6f5760405162461bcd60e51b815260206004820152601e60248201527f4170706f696e746d656e742049442063616e6e6f7420626520656d707479000060448201526064016105ce565b600582604051610d7f9190611f27565b9081526040519081900360200190206004015460ff600160a01b9091041615610dea5760405162461bcd60e51b815260206004820152601a60248201527f4170706f696e746d656e7420616c72656164792065786973747300000000000060448201526064016105ce565b6040805160c08101825283815260208101839052428183015260608101859052336080820152600160a082015290518190600590610e29908690611f27565b90815260405190819003602001902081518190610e469082611fcc565b5060208201516001820190610e5b9082611fcc565b506040820151600282015560608201516003820190610e7a9082611fcc565b5060808201516004909101805460a0909301511515600160a01b026001600160a81b03199093166001600160a01b0390921691909117919091179055610ec4600280546001019055565b6040513390610ed4908490611f27565b604051809103902084604051610eea9190611f27565b60405180910390207f644052f976ebcaa237b468ca1f1435dcc8146ee7400bd7766b2953ed5b6675b58742604051610f2392919061208c565b60405180910390a450505050565b6000610f3c60025490565b905090565b610f4961192a565b610c43611a76565b3360009081526006602052604090205460ff1680610f7957506000546001600160a01b031633145b610fbf5760405162461bcd60e51b81526020600482015260176024820152762737ba1030baba3437b934bd32b210383937bb34b232b960491b60448201526064016105ce565b610fc7611a29565b60008351116110185760405162461bcd60e51b815260206004820152601b60248201527f5265636f726420686173682063616e6e6f7420626520656d707479000000000060448201526064016105ce565b60008251116110625760405162461bcd60e51b81526020600482015260166024820152755065742049442063616e6e6f7420626520656d70747960501b60448201526064016105ce565b6003836040516110729190611f27565b9081526040519081900360200190206004015460ff600160a01b90910416156110d55760405162461bcd60e51b81526020600482015260156024820152745265636f726420616c72656164792065786973747360581b60448201526064016105ce565b6040805160c08101825283815260208101839052428183015260608101859052336080820152600160a082015290518190600390611114908790611f27565b908152604051908190036020019020815181906111319082611fcc565b50602082015160018201906111469082611fcc565b5060408201516002820155606082015160038201906111659082611fcc565b5060808201516004918201805460a0909401511515600160a01b026001600160a81b03199094166001600160a01b0390921691909117929092179091556040516111b0908590611f27565b9081526040519081900360200190206003015460ff1661128257604080516080810182528481528151600080825260208281019094529192830191611205565b60608152602001906001900390816111f05790505b50815260006020820152600160409182015251600490611226908690611f27565b908152604051908190036020019020815181906112439082611fcc565b50602082810151805161125c9260018501920190611b09565b50604082015160028201556060909101516003909101805460ff19169115159190911790555b6004836040516112929190611f27565b90815260405160209181900382019020600190810180549182018155600090815291909120016112c28582611fcc565b506004836040516112d39190611f27565b90815260405190819003602001902060020180549060006112f3836120ae565b9091555050336000908152600760209081526040822080546001810182559083529120016113218582611fcc565b50611330600180546001019055565b6040513390611340908590611f27565b60405180910390207f5a6c8c9f09f2b23c333fdfc1ea63eef03c3baa37810c49bb860d1d7430520bb086854260405161137b939291906120d5565b60405180910390a350505050565b606060048260405161139b9190611f27565b9081526040519081900360200190206003015460ff166113fd5760405162461bcd60e51b815260206004820152601860248201527f506574207265636f72647320646f206e6f74206578697374000000000000000060448201526064016105ce565b60048260405161140d9190611f27565b9081526020016040518091039020600101805480602002602001604051908101604052809291908181526020016000905b82821015610c2857838290600052602060002001805461145d90611f43565b80601f016020809104026020016040519081016040528092919081815260200182805461148990611f43565b80156114d65780601f106114ab576101008083540402835291602001916114d6565b820191906000526020600020905b8154815290600101906020018083116114b957829003601f168201915b50505050508152602001906001019061143e565b6114f261192a565b6001600160a01b03811660009081526006602052604090205460ff1661155a5760405162461bcd60e51b815260206004820152601760248201527f50726f7669646572206e6f7420617574686f72697a656400000000000000000060448201526064016105ce565b6001600160a01b03811660008181526006602052604090819020805460ff19169055517f9bb673ad8a87cc3127dff95aacd54437e94c3262aca5f99a5ddc8a0e9ac71b19906106959042815260200190565b6000610f3c60015490565b80516020818301810180516003825292820191909301209152805481906106c690611f43565b6060600080836003816040516115f39190611f27565b9081526040519081900360200190206004015460ff600160a01b909104166116555760405162461bcd60e51b8152602060048201526015602482015274149958dbdc9908191bd95cc81b9bdd08195e1a5cdd605a1b60448201526064016105ce565b60006003866040516116679190611f27565b90815260200160405180910390206040518060c001604052908160008201805461169090611f43565b80601f01602080910402602001604051908101604052809291908181526020018280546116bc90611f43565b80156117095780601f106116de57610100808354040283529160200191611709565b820191906000526020600020905b8154815290600101906020018083116116ec57829003601f168201915b5050505050815260200160018201805461172290611f43565b80601f016020809104026020016040519081016040528092919081815260200182805461174e90611f43565b801561179b5780601f106117705761010080835404028352916020019161179b565b820191906000526020600020905b81548152906001019060200180831161177e57829003601f168201915b50505050508152602001600282015481526020016003820180546117be90611f43565b80601f01602080910402602001604051908101604052809291908181526020018280546117ea90611f43565b80156118375780601f1061180c57610100808354040283529160200191611837565b820191906000526020600020905b81548152906001019060200180831161181a57829003601f168201915b5050509183525050600491909101546001600160a01b0381166020830152600160a01b900460ff16151560409182015281519082015160a090920151909891975095509350505050565b600080600061188f60015490565b6002546000925092509250909192565b6118a761192a565b6001600160a01b03811661190c5760405162461bcd60e51b815260206004820152602660248201527f4f776e61626c653a206e6577206f776e657220697320746865207a65726f206160448201526564647265737360d01b60648201526084016105ce565b611915816119d9565b50565b60006003826040516103de9190611f27565b6000546001600160a01b03163314610c435760405162461bcd60e51b815260206004820181905260248201527f4f776e61626c653a2063616c6c6572206973206e6f7420746865206f776e657260448201526064016105ce565b61198c611ab9565b6000805460ff60a01b191690557f5db9ee0a495bf2e6ff9c91a7834c1ba4fdd244a5e8aa4e537bd38aeae4b073aa335b6040516001600160a01b03909116815260200160405180910390a1565b600080546001600160a01b038381166001600160a01b0319831681178455604051919092169283917f8be0079c531659141344cd1fd0a4f28419497f9722a3daafe3b4186f6b6457e09190a35050565b600054600160a01b900460ff1615610c435760405162461bcd60e51b815260206004820152601060248201526f14185d5cd8589b194e881c185d5cd95960821b60448201526064016105ce565b611a7e611a29565b6000805460ff60a01b1916600160a01b1790557f62e78cea01bee320cd4e420270b5ea74000d11b0c9f74754ebdbfc544b05a2586119bc3390565b600054600160a01b900460ff16610c435760405162461bcd60e51b815260206004820152601460248201527314185d5cd8589b194e881b9bdd081c185d5cd95960621b60448201526064016105ce565b828054828255906000526020600020908101928215611b4f579160200282015b82811115611b4f5782518290611b3f9082611fcc565b5091602001919060010190611b29565b50611b5b929150611b5f565b5090565b80821115611b5b576000611b738282611b7c565b50600101611b5f565b508054611b8890611f43565b6000825580601f10611b98575050565b601f01602090049060005260206000209081019061191591905b80821115611b5b5760008155600101611bb2565b634e487b7160e01b600052604160045260246000fd5b600082601f830112611bed57600080fd5b813567ffffffffffffffff80821115611c0857611c08611bc6565b604051601f8301601f19908116603f01168101908282118183101715611c3057611c30611bc6565b81604052838152866020858801011115611c4957600080fd5b836020870160208301376000602085830101528094505050505092915050565b600060208284031215611c7b57600080fd5b813567ffffffffffffffff811115611c9257600080fd5b611c9e84828501611bdc565b949350505050565b80356001600160a01b0381168114611cbd57600080fd5b919050565b60008060408385031215611cd557600080fd5b611cde83611ca6565b946020939093013593505050565b60005b83811015611d07578181015183820152602001611cef565b50506000910152565b60008151808452611d28816020860160208601611cec565b601f01601f19169290920160200192915050565b602081526000611d4f6020830184611d10565b9392505050565b606081526000611d696060830186611d10565b602083019490945250901515604090910152919050565b600060208284031215611d9257600080fd5b611d4f82611ca6565b60c081526000611dae60c0830189611d10565b8281036020840152611dc08189611d10565b90508660408401528281036060840152611dda8187611d10565b6001600160a01b03959095166080840152505090151560a090910152949350505050565b608081526000611e116080830187611d10565b8560208401528281036040840152611e298186611d10565b915050821515606083015295945050505050565b6000602080830181845280855180835260408601915060408160051b870101925083870160005b82811015611e9257603f19888603018452611e80858351611d10565b94509285019290850190600101611e64565b5092979650505050505050565b600080600060608486031215611eb457600080fd5b833567ffffffffffffffff80821115611ecc57600080fd5b611ed887838801611bdc565b94506020860135915080821115611eee57600080fd5b611efa87838801611bdc565b93506040860135915080821115611f1057600080fd5b50611f1d86828701611bdc565b9150509250925092565b60008251611f39818460208701611cec565b9190910192915050565b600181811c90821680611f5757607f821691505b602082108103611f7757634e487b7160e01b600052602260045260246000fd5b50919050565b601f821115611fc757600081815260208120601f850160051c81016020861015611fa45750805b601f850160051c820191505b81811015611fc357828155600101611fb0565b5050505b505050565b815167ffffffffffffffff811115611fe657611fe6611bc6565b611ffa81611ff48454611f43565b84611f7d565b602080601f83116001811461202f57600084156120175750858301515b600019600386901b1c1916600185901b178555611fc3565b600085815260208120601f198616915b8281101561205e5788860151825594840194600190910190840161203f565b508582101561207c5787850151600019600388901b60f8161c191681555b5050505050600190811b01905550565b60408152600061209f6040830185611d10565b90508260208301529392505050565b6000600182016120ce57634e487b7160e01b600052601160045260246000fd5b5060010190565b6060815260006120e86060830186611d10565b82810360208401526120fa8186611d10565b91505082604083015294935050505056fea26469706673582212207866222b3cb747f4306be4b6ea337e3c6f40c96d73476b8a1268367c316ad44664736f6c63430008130033",
  "linkReferences": {},
  "deployedLinkReferences": {}
}